:100000000C9434000C943E000C943E000C943E0082
:100010000C943E000C943E000C943E000C943E0068
:100020000C943E000C943E000C943E000C943E0058
:100030000C943E000C943E000C943E000C943E0048
:100040000C943E000C943E000C943E000C943E0038
:100050000C943E000C943E000C943E000C943E0028
:100060000C943E000C943E0011241FBECFEFD8E04C
:10007000DEBFCDBF0E9440000C94F6000C9400003F
:100080008FEF84B987B92FE33DE043E02150304042
:100090004040E1F700C0000080E885B95FED62E212
:1000A00072E0515060407040E1F700C0000095B12F
:1000B00015B890E495B9EFEDF2E222E0E150F0409E
:1000C0002040E1F700C0000025B115B820E225B9B5
:1000D0003FED42E252E0315040405040E1F700C075
:1000E000000015B831E135B96FED72E2E2E0615020
:1000F0007040E040E1F700C0000045B115B848E0AD
:1001000045B9FFED52E262E0F15050406040E1F746
:1001100000C0000055B115B864E065B951E058B9A8
:100120007FEDE2E2F2E07150E040F040E1F700C024
:10013000000078B118B875B115B872E075B97FEDE7
:10014000E2E2F2E07150E040F040E1F700C0000070
:1001500075B115B865B958B95FED62E272E05150FA
:1001600060407040E1F700C0000055B115B858B1CB
:1001700018B845B9EFEDF2E242E0E150F0404040FE
:10018000E1F700C0000045B115B835B95FED62E296
:1001900072E0515060407040E1F700C0000035B19E
:1001A00015B825B9EFEDF2E222E0E150F040204031
:1001B000E1F700C0000025B115B895B93FED42E266
:1001C00052E0315040405040E1F700C0000085B996
:1001D0006FED72E282E0615070408040E1F700C054
:1001E000000085B115B880E090E00895F894FFCF45
:00000001FF
